{"abi":[{"type":"constructor","inputs":[{"name":"tokenAddress","type":"address","internalType":"address"}],"stateMutability":"nonpayable"},{"type":"receive","stateMutability":"payable"},{"type":"function","name":"addLiquidity","inputs":[{"name":"tokenAmount","type":"uint256","internalType":"uint256"}],"outputs":[],"stateMutability":"payable"},{"type":"function","name":"getETHAmount","inputs":[{"name":"tokenIn","type":"uint256","internalType":"uint256"}],"outputs":[{"name":"","type":"uint256","internalType":"uint256"}],"stateMutability":"view"},{"type":"function","name":"getTokenAmount","inputs":[{"name":"ethIn","type":"uint256","internalType":"uint256"}],"outputs":[{"name":"","type":"uint256","internalType":"uint256"}],"stateMutability":"view"},{"type":"function","name":"liquidity","inputs":[{"name":"","type":"address","internalType":"address"}],"outputs":[{"name":"","type":"uint256","internalType":"uint256"}],"stateMutability":"view"},{"type":"function","name":"removeLiquidity","inputs":[{"name":"liquidityAmount","type":"uint256","internalType":"uint256"},{"name":"minEthOut","type":"uint256","internalType":"uint256"},{"name":"minTokenOut","type":"uint256","internalType":"uint256"},{"name":"deadline","type":"uint256","internalType":"uint256"}],"outputs":[],"stateMutability":"nonpayable"},{"type":"function","name":"reserveETH","inputs":[],"outputs":[{"name":"","type":"uint256","internalType":"uint256"}],"stateMutability":"view"},{"type":"function","name":"reserveToken","inputs":[],"outputs":[{"name":"","type":"uint256","internalType":"uint256"}],"stateMutability":"view"},{"type":"function","name":"swapETHForToken","inputs":[{"name":"minTokensOut","type":"uint256","internalType":"uint256"},{"name":"deadline","type":"uint256","internalType":"uint256"}],"outputs":[],"stateMutability":"payable"},{"type":"function","name":"swapTokenForETH","inputs":[{"name":"tokenAmount","type":"uint256","internalType":"uint256"},{"name":"minEthOut","type":"uint256","internalType":"uint256"},{"name":"deadline","type":"uint256","internalType":"uint256"}],"outputs":[],"stateMutability":"nonpayable"},{"type":"function","name":"token","inputs":[],"outputs":[{"name":"","type":"address","internalType":"contract IERC20"}],"stateMutability":"view"},{"type":"function","name":"totalLiquidity","inputs":[],"outputs":[{"name":"","type":"uint256","internalType":"uint256"}],"stateMutability":"view"},{"type":"event","name":"LiquidityAdded","inputs":[{"name":"provider","type":"address","indexed":true,"internalType":"address"},{"name":"ethAmount","type":"uint256","indexed":false,"internalType":"uint256"},{"name":"tokenAmount","type":"uint256","indexed":false,"internalType":"uint256"},{"name":"mintedLiquidity","type":"uint256","indexed":false,"internalType":"uint256"}],"anonymous":false},{"type":"event","name":"LiquidityRemoved","inputs":[{"name":"provider","type":"address","indexed":true,"internalType":"address"},{"name":"ethAmount","type":"uint256","indexed":false,"internalType":"uint256"},{"name":"tokenAmount","type":"uint256","indexed":false,"internalType":"uint256"},{"name":"burnedLiquidity","type":"uint256","indexed":false,"internalType":"uint256"}],"anonymous":false},{"type":"event","name":"Swap","inputs":[{"name":"trader","type":"address","indexed":true,"internalType":"address"},{"name":"ethToToken","type":"bool","indexed":false,"internalType":"bool"},{"name":"amountIn","type":"uint256","indexed":false,"internalType":"uint256"},{"name":"amountOut","type":"uint256","indexed":false,"internalType":"uint256"}],"anonymous":false},{"type":"error","name":"ReentrancyGuardReentrantCall","inputs":[]},{"type":"error","name":"SafeERC20FailedOperation","inputs":[{"name":"token","type":"address","internalType":"address"}]}],"bytecode":{"object":"0x60a060405234801562000010575f80fd5b506040516200220b3803806200220b83398181016040528101906200003691906200014e565b60015f819055505f73ffffffffffffffffffffffffffffffffffffffff168173ffffffffffffffffffffffffffffffffffffffff1603620000ae576040517f08c379a0000000000000000000000000000000000000000000000000000000008152600401620000a590620001dc565b60405180910390fd5b8073ffffffffffffffffffffffffffffffffffffffff1660808173ffffffffffffffffffffffffffffffffffffffff168152505050620001fc565b5f80fd5b5f73ffffffffffffffffffffffffffffffffffffffff82169050919050565b5f6200011882620000ed565b9050919050565b6200012a816200010c565b811462000135575f80fd5b50565b5f8151905062000148816200011f565b92915050565b5f60208284031215620001665762000165620000e9565b5b5f620001758482850162000138565b91505092915050565b5f82825260208201905092915050565b7f746f6b656e2072657175697265640000000000000000000000000000000000005f82015250565b5f620001c4600e836200017e565b9150620001d1826200018e565b602082019050919050565b5f6020820190508181035f830152620001f581620001b6565b9050919050565b608051611fd3620002385f395f818161042c0152818161062c015281816107b801528181610c1901528181611063015261110d0152611fd35ff3fe60806040526004361061009f575f3560e01c8063c2507ac111610063578063c2507ac1146101ec578063e1267a7114610228578063ef46b2ab14610244578063f4325d6714610280578063f88bf15a146102aa578063fc0c546a146102d257610114565b8063100af2031461011857806315770f921461014257806351c6590a1461016c5780639831479414610188578063b8c876b1146101b057610114565b36610114573273ffffffffffffffffffffffffffffffffffffffff163373ffffffffffffffffffffffffffffffffffffffff1603610112576040517f08c379a000000000000000000000000000000000000000000000000000000000815260040161010990611410565b60405180910390fd5b005b5f80fd5b348015610123575f80fd5b5061012c6102fc565b6040516101399190611446565b60405180910390f35b34801561014d575f80fd5b50610156610302565b6040516101639190611446565b60405180910390f35b6101866004803603810190610181919061148d565b610308565b005b348015610193575f80fd5b506101ae60048036038101906101a991906114b8565b6106d1565b005b3480156101bb575f80fd5b506101d660048036038101906101d19190611562565b610a13565b6040516101e39190611446565b60405180910390f35b3480156101f7575f80fd5b50610212600480360381019061020d919061148d565b610a28565b60405161021f9190611446565b60405180910390f35b610242600480360381019061023d919061158d565b610a68565b005b34801561024f575f80fd5b5061026a6004803603810190610265919061148d565b610cbf565b6040516102779190611446565b60405180910390f35b34801561028b575f80fd5b50610294610cff565b6040516102a19190611446565b60405180910390f35b3480156102b5575f80fd5b506102d060048036038101906102cb91906115cb565b610d05565b005b3480156102dd575f80fd5b506102e661110b565b6040516102f3919061168a565b60405180910390f35b60015481565b60045481565b61031061112f565b5f3411610352576040517f08c379a0000000000000000000000000000000000000000000000000000000008152600401610349906116ed565b60405180910390fd5b5f8111610394576040517f08c379a000000000000000000000000000000000000000000000000000000000815260040161038b90611755565b60405180910390fd5b5f6001541480156103a657505f600254145b156104c8573460035f3373ffffffffffffffffffffffffffffffffffffffff1673ffffffffffffffffffffffffffffffffffffffff1681526020019081526020015f205f8282546103f791906117a0565b925050819055503460045f82825461040f91906117a0565b9250508190555034600181905550806002819055506104713330837f000000000000000000000000000000000000000000000000000000000000000073ffffffffffffffffffffffffffffffffffffffff16611173909392919063ffffffff16565b3373ffffffffffffffffffffffffffffffffffffffff167f64b83944e79c3ce8d4c297411de637c3e102d064677aac0c163976ebdcd6f50e3483346040516104bb939291906117d3565b60405180910390a26106c6565b5f600154600254346104da9190611808565b6104e49190611876565b905080821015610529576040517f08c379a0000000000000000000000000000000000000000000000000000000008152600401610520906118f0565b60405180910390fd5b5f6001546004543461053b9190611808565b6105459190611876565b90505f8111610589576040517f08c379a000000000000000000000000000000000000000000000000000000000815260040161058090611958565b60405180910390fd5b8060035f3373ffffffffffffffffffffffffffffffffffffffff1673ffffffffffffffffffffffffffffffffffffffff1681526020019081526020015f205f8282546105d591906117a0565b925050819055508060045f8282546105ed91906117a0565b925050819055503460015f82825461060591906117a0565b925050819055508160025f82825461061d91906117a0565b925050819055506106713330847f000000000000000000000000000000000000000000000000000000000000000073ffffffffffffffffffffffffffffffffffffffff16611173909392919063ffffffff16565b3373ffffffffffffffffffffffffffffffffffffffff167f64b83944e79c3ce8d4c297411de637c3e102d064677aac0c163976ebdcd6f50e3484846040516106bb939291906117d3565b60405180910390a250505b6106ce6111f5565b50565b6106d961112f565b808042111561071d576040517f08c379a0000000000000000000000000000000000000000000000000000000008152600401610714906119c0565b60405180910390fd5b5f841161075f576040517f08c379a000000000000000000000000000000000000000000000000000000000815260040161075690611a28565b60405180910390fd5b5f60015411801561077157505f600254115b6107b0576040517f08c379a00000000000000000000000000000000000000000000000000000000081526004016107a790611a90565b60405180910390fd5b6107fd3330867f000000000000000000000000000000000000000000000000000000000000000073ffffffffffffffffffffffffffffffffffffffff16611173909392919063ffffffff16565b5f61080d856002546001546111fe565b905083811015610852576040517f08c379a000000000000000000000000000000000000000000000000000000000815260040161084990611af8565b60405180910390fd5b5f8111610894576040517f08c379a000000000000000000000000000000000000000000000000000000000815260040161088b90611b60565b60405180910390fd5b8060015410156108d9576040517f08c379a00000000000000000000000000000000000000000000000000000000081526004016108d090611bc8565b60405180910390fd5b8460025f8282546108ea91906117a0565b925050819055508060015f8282546109029190611be6565b925050819055505f3373ffffffffffffffffffffffffffffffffffffffff168260405161092e90611c46565b5f6040518083038185875af1925050503d805f8114610968576040519150601f19603f3d011682016040523d82523d5f602084013e61096d565b606091505b50509050806109b1576040517f08c379a00000000000000000000000000000000000000000000000000000000081526004016109a890611ca4565b60405180910390fd5b3373ffffffffffffffffffffffffffffffffffffffff167fbfd50a04f1e6e4aee344f5d0e7f15d74d0dbb58cd1f711daa6463094ca9508cd5f88856040516109fb93929190611cdc565b60405180910390a2505050610a0e6111f5565b505050565b6003602052805f5260405f205f915090505481565b5f80821480610a3857505f600154145b80610a4457505f600254145b15610a51575f9050610a63565b610a60826001546002546111fe565b90505b919050565b610a7061112f565b8080421115610ab4576040517f08c379a0000000000000000000000000000000000000000000000000000000008152600401610aab906119c0565b60405180910390fd5b5f3411610af6576040517f08c379a0000000000000000000000000000000000000000000000000000000008152600401610aed90611d5b565b60405180910390fd5b5f600154118015610b0857505f600254115b610b47576040517f08c379a0000000000000000000000000000000000000000000000000000000008152600401610b3e90611a90565b60405180910390fd5b5f3490505f610b5b826001546002546111fe565b905084811015610ba0576040517f08c379a0000000000000000000000000000000000000000000000000000000008152600401610b9790611dc3565b60405180910390fd5b5f8111610be2576040517f08c379a0000000000000000000000000000000000000000000000000000000008152600401610bd990611b60565b60405180910390fd5b8160015f828254610bf391906117a0565b925050819055508060025f828254610c0b9190611be6565b92505081905550610c5d33827f000000000000000000000000000000000000000000000000000000000000000073ffffffffffffffffffffffffffffffffffffffff1661129c9092919063ffffffff16565b3373ffffffffffffffffffffffffffffffffffffffff167fbfd50a04f1e6e4aee344f5d0e7f15d74d0dbb58cd1f711daa6463094ca9508cd60018484604051610ca893929190611cdc565b60405180910390a2505050610cbb6111f5565b5050565b5f80821480610ccf57505f600154145b80610cdb57505f600254145b15610ce8575f9050610cfa565b610cf7826002546001546111fe565b90505b919050565b60025481565b610d0d61112f565b8080421115610d51576040517f08c379a0000000000000000000000000000000000000000000000000000000008152600401610d48906119c0565b60405180910390fd5b5f8511610d93576040517f08c379a0000000000000000000000000000000000000000000000000000000008152600401610d8a90611e2b565b60405180910390fd5b8460035f3373ffffffffffffffffffffffffffffffffffffffff1673ffffffffffffffffffffffffffffffffffffffff1681526020019081526020015f20541015610e13576040517f08c379a0000000000000000000000000000000000000000000000000000000008152600401610e0a90611e93565b60405180910390fd5b5f60045411610e57576040517f08c379a0000000000000000000000000000000000000000000000000000000008152600401610e4e90611a90565b60405180910390fd5b5f60045460015487610e699190611808565b610e739190611876565b90505f60045460025488610e879190611808565b610e919190611876565b905085821015610ed6576040517f08c379a0000000000000000000000000000000000000000000000000000000008152600401610ecd90611af8565b60405180910390fd5b84811015610f19576040517f08c379a0000000000000000000000000000000000000000000000000000000008152600401610f1090611dc3565b60405180910390fd5b8660035f3373ffffffffffffffffffffffffffffffffffffffff1673ffffffffffffffffffffffffffffffffffffffff1681526020019081526020015f205f828254610f659190611be6565b925050819055508660045f828254610f7d9190611be6565b925050819055508160015f828254610f959190611be6565b925050819055508060025f828254610fad9190611be6565b925050819055505f3373ffffffffffffffffffffffffffffffffffffffff1683604051610fd990611c46565b5f6040518083038185875af1925050503d805f8114611013576040519150601f19603f3d011682016040523d82523d5f602084013e611018565b606091505b505090508061105c576040517f08c379a000000000000000000000000000000000000000000000000000000000815260040161105390611ca4565b60405180910390fd5b6110a733837f000000000000000000000000000000000000000000000000000000000000000073ffffffffffffffffffffffffffffffffffffffff1661129c9092919063ffffffff16565b3373ffffffffffffffffffffffffffffffffffffffff167f1dc8bb69df2b8e91fbdcbfcf93d951b3f0000f085a95fe3f7946d6161439245d84848b6040516110f1939291906117d3565b60405180910390a2505050506111056111f5565b50505050565b7f000000000000000000000000000000000000000000000000000000000000000081565b60025f540361116a576040517f3ee5aeb500000000000000000000000000000000000000000000000000000000815260040160405180910390fd5b60025f81905550565b6111ef848573ffffffffffffffffffffffffffffffffffffffff166323b872dd8686866040516024016111a893929190611ec0565b604051602081830303815290604052915060e01b6020820180517bffffffffffffffffffffffffffffffffffffffffffffffffffffffff838183161783525050505061131b565b50505050565b60015f81905550565b5f80601e61271061120f9190611be6565b8561121a9190611808565b90505f816127108661122c9190611808565b61123691906117a0565b90505f810361127a576040517f08c379a000000000000000000000000000000000000000000000000000000000815260040161127190611f3f565b60405180910390fd5b8084836112879190611808565b6112919190611876565b925050509392505050565b611316838473ffffffffffffffffffffffffffffffffffffffff1663a9059cbb85856040516024016112cf929190611f5d565b604051602081830303815290604052915060e01b6020820180517bffffffffffffffffffffffffffffffffffffffffffffffffffffffff838183161783525050505061131b565b505050565b5f8060205f8451602086015f885af18061133a576040513d5f823e3d81fd5b3d92505f519150505f821461135357600181141561136e565b5f8473ffffffffffffffffffffffffffffffffffffffff163b145b156113b057836040517f5274afe70000000000000000000000000000000000000000000000000000000081526004016113a79190611f84565b60405180910390fd5b50505050565b5f82825260208201905092915050565b7f646972656374206465706f736974732064697361626c656400000000000000005f82015250565b5f6113fa6018836113b6565b9150611405826113c6565b602082019050919050565b5f6020820190508181035f830152611427816113ee565b9050919050565b5f819050919050565b6114408161142e565b82525050565b5f6020820190506114595f830184611437565b92915050565b5f80fd5b61146c8161142e565b8114611476575f80fd5b50565b5f8135905061148781611463565b92915050565b5f602082840312156114a2576114a161145f565b5b5f6114af84828501611479565b91505092915050565b5f805f606084860312156114cf576114ce61145f565b5b5f6114dc86828701611479565b93505060206114ed86828701611479565b92505060406114fe86828701611479565b9150509250925092565b5f73ffffffffffffffffffffffffffffffffffffffff82169050919050565b5f61153182611508565b9050919050565b61154181611527565b811461154b575f80fd5b50565b5f8135905061155c81611538565b92915050565b5f602082840312156115775761157661145f565b5b5f6115848482850161154e565b91505092915050565b5f80604083850312156115a3576115a261145f565b5b5f6115b085828601611479565b92505060206115c185828601611479565b9150509250929050565b5f805f80608085870312156115e3576115e261145f565b5b5f6115f087828801611479565b945050602061160187828801611479565b935050604061161287828801611479565b925050606061162387828801611479565b91505092959194509250565b5f819050919050565b5f61165261164d61164884611508565b61162f565b611508565b9050919050565b5f61166382611638565b9050919050565b5f61167482611659565b9050919050565b6116848161166a565b82525050565b5f60208201905061169d5f83018461167b565b92915050565b7f65746820726571756972656400000000000000000000000000000000000000005f82015250565b5f6116d7600c836113b6565b91506116e2826116a3565b602082019050919050565b5f6020820190508181035f830152611704816116cb565b9050919050565b7f746f6b656e2072657175697265640000000000000000000000000000000000005f82015250565b5f61173f600e836113b6565b915061174a8261170b565b602082019050919050565b5f6020820190508181035f83015261176c81611733565b9050919050565b7f4e487b71000000000000000000000000000000000000000000000000000000005f52601160045260245ffd5b5f6117aa8261142e565b91506117b58361142e565b92508282019050808211156117cd576117cc611773565b5b92915050565b5f6060820190506117e65f830186611437565b6117f36020830185611437565b6118006040830184611437565b949350505050565b5f6118128261142e565b915061181d8361142e565b925082820261182b8161142e565b9150828204841483151761184257611841611773565b5b5092915050565b7f4e487b71000000000000000000000000000000000000000000000000000000005f52601260045260245ffd5b5f6118808261142e565b915061188b8361142e565b92508261189b5761189a611849565b5b828204905092915050565b7f726174696f206d69736d617463680000000000000000000000000000000000005f82015250565b5f6118da600e836113b6565b91506118e5826118a6565b602082019050919050565b5f6020820190508181035f830152611907816118ce565b9050919050565b7f6c697175696469747920746f6f20736d616c6c000000000000000000000000005f82015250565b5f6119426013836113b6565b915061194d8261190e565b602082019050919050565b5f6020820190508181035f83015261196f81611936565b9050919050565b7f65787069726564000000000000000000000000000000000000000000000000005f82015250565b5f6119aa6007836113b6565b91506119b582611976565b602082019050919050565b5f6020820190508181035f8301526119d78161199e565b9050919050565b7f6e6f20746f6b656e0000000000000000000000000000000000000000000000005f82015250565b5f611a126008836113b6565b9150611a1d826119de565b602082019050919050565b5f6020820190508181035f830152611a3f81611a06565b9050919050565b7f706f6f6c20656d707479000000000000000000000000000000000000000000005f82015250565b5f611a7a600a836113b6565b9150611a8582611a46565b602082019050919050565b5f6020820190508181035f830152611aa781611a6e565b9050919050565b7f45544820736c69707061676500000000000000000000000000000000000000005f82015250565b5f611ae2600c836113b6565b9150611aed82611aae565b602082019050919050565b5f6020820190508181035f830152611b0f81611ad6565b9050919050565b7f696e73756666696369656e74206f7574707574000000000000000000000000005f82015250565b5f611b4a6013836113b6565b9150611b5582611b16565b602082019050919050565b5f6020820190508181035f830152611b7781611b3e565b9050919050565b7f696e73756666696369656e7420657468207265736572766500000000000000005f82015250565b5f611bb26018836113b6565b9150611bbd82611b7e565b602082019050919050565b5f6020820190508181035f830152611bdf81611ba6565b9050919050565b5f611bf08261142e565b9150611bfb8361142e565b9250828203905081811115611c1357611c12611773565b5b92915050565b5f81905092915050565b50565b5f611c315f83611c19565b9150611c3c82611c23565b5f82019050919050565b5f611c5082611c26565b9150819050919050565b7f455448207472616e73666572206661696c6564000000000000000000000000005f82015250565b5f611c8e6013836113b6565b9150611c9982611c5a565b602082019050919050565b5f6020820190508181035f830152611cbb81611c82565b9050919050565b5f8115159050919050565b611cd681611cc2565b82525050565b5f606082019050611cef5f830186611ccd565b611cfc6020830185611437565b611d096040830184611437565b949350505050565b7f6e6f2065746800000000000000000000000000000000000000000000000000005f82015250565b5f611d456006836113b6565b9150611d5082611d11565b602082019050919050565b5f6020820190508181035f830152611d7281611d39565b9050919050565b7f746f6b656e20736c6970706167650000000000000000000000000000000000005f82015250565b5f611dad600e836113b6565b9150611db882611d79565b602082019050919050565b5f6020820190508181035f830152611dda81611da1565b9050919050565b7f6e6f206c697175696469747900000000000000000000000000000000000000005f82015250565b5f611e15600c836113b6565b9150611e2082611de1565b602082019050919050565b5f6020820190508181035f830152611e4281611e09565b9050919050565b7f696e73756666696369656e74206c6971756964697479000000000000000000005f82015250565b5f611e7d6016836113b6565b9150611e8882611e49565b602082019050919050565b5f6020820190508181035f830152611eaa81611e71565b9050919050565b611eba81611527565b82525050565b5f606082019050611ed35f830186611eb1565b611ee06020830185611eb1565b611eed6040830184611437565b949350505050565b7f6261642064656e6f6d696e61746f7200000000000000000000000000000000005f82015250565b5f611f29600f836113b6565b9150611f3482611ef5565b602082019050919050565b5f6020820190508181035f830152611f5681611f1d565b9050919050565b5f604082019050611f705f830185611eb1565b611f7d6020830184611437565b9392505050565b5f602082019050611f975f830184611eb1565b9291505056fea2646970667358221220a5fb60338639f4532ed760154ab76d08cac5764be57680f4ea64d5a5452d974864736f6c63430008140033","linkReferences":{}},"methodIdentifiers":{"addLiquidity(uint256)":"51c6590a","getETHAmount(uint256)":"ef46b2ab","getTokenAmount(uint256)":"c2507ac1","liquidity(address)":"b8c876b1","removeLiquidity(uint256,uint256,uint256,uint256)":"f88bf15a","reserveETH()":"100af203","reserveToken()":"f4325d67","swapETHForToken(uint256,uint256)":"e1267a71","swapTokenForETH(uint256,uint256,uint256)":"98314794","token()":"fc0c546a","totalLiquidity()":"15770f92"},"id":29}