{"abi":[{"type":"constructor","inputs":[{"name":"_token","type":"address","internalType":"address"}],"stateMutability":"nonpayable"},{"type":"function","name":"addLiquidity","inputs":[{"name":"_tokenAmount","type":"uint256","internalType":"uint256"}],"outputs":[],"stateMutability":"payable"},{"type":"function","name":"getETHAmount","inputs":[{"name":"tokenIn","type":"uint256","internalType":"uint256"}],"outputs":[{"name":"","type":"uint256","internalType":"uint256"}],"stateMutability":"view"},{"type":"function","name":"getTokenAmount","inputs":[{"name":"ethIn","type":"uint256","internalType":"uint256"}],"outputs":[{"name":"","type":"uint256","internalType":"uint256"}],"stateMutability":"view"},{"type":"function","name":"liquidity","inputs":[{"name":"","type":"address","internalType":"address"}],"outputs":[{"name":"","type":"uint256","internalType":"uint256"}],"stateMutability":"view"},{"type":"function","name":"removeLiquidity","inputs":[{"name":"_liquidity","type":"uint256","internalType":"uint256"}],"outputs":[],"stateMutability":"nonpayable"},{"type":"function","name":"reserveETH","inputs":[],"outputs":[{"name":"","type":"uint256","internalType":"uint256"}],"stateMutability":"view"},{"type":"function","name":"reserveToken","inputs":[],"outputs":[{"name":"","type":"uint256","internalType":"uint256"}],"stateMutability":"view"},{"type":"function","name":"swapETHForToken","inputs":[],"outputs":[],"stateMutability":"payable"},{"type":"function","name":"swapTokenForETH","inputs":[{"name":"_tokenAmount","type":"uint256","internalType":"uint256"}],"outputs":[],"stateMutability":"nonpayable"},{"type":"function","name":"token","inputs":[],"outputs":[{"name":"","type":"address","internalType":"contract IERC20"}],"stateMutability":"view"},{"type":"function","name":"totalLiquidity","inputs":[],"outputs":[{"name":"","type":"uint256","internalType":"uint256"}],"stateMutability":"view"},{"type":"event","name":"LiquidityAdded","inputs":[{"name":"provider","type":"address","indexed":true,"internalType":"address"},{"name":"ethAmount","type":"uint256","indexed":false,"internalType":"uint256"},{"name":"tokenAmount","type":"uint256","indexed":false,"internalType":"uint256"}],"anonymous":false},{"type":"event","name":"LiquidityRemoved","inputs":[{"name":"provider","type":"address","indexed":true,"internalType":"address"},{"name":"ethAmount","type":"uint256","indexed":false,"internalType":"uint256"},{"name":"tokenAmount","type":"uint256","indexed":false,"internalType":"uint256"}],"anonymous":false},{"type":"event","name":"Swap","inputs":[{"name":"trader","type":"address","indexed":true,"internalType":"address"},{"name":"direction","type":"string","indexed":false,"internalType":"string"},{"name":"amountIn","type":"uint256","indexed":false,"internalType":"uint256"},{"name":"amountOut","type":"uint256","indexed":false,"internalType":"uint256"}],"anonymous":false}],"bytecode":{"object":"0x608060405234801562000010575f80fd5b506040516200127d3803806200127d8339818101604052810190620000369190620000e1565b805f806101000a81548173ffffffffffffffffffffffffffffffffffffffff021916908373ffffffffffffffffffffffffffffffffffffffff1602179055505062000111565b5f80fd5b5f73ffffffffffffffffffffffffffffffffffffffff82169050919050565b5f620000ab8262000080565b9050919050565b620000bd816200009f565b8114620000c8575f80fd5b50565b5f81519050620000db81620000b2565b92915050565b5f60208284031215620000f957620000f86200007c565b5b5f6200010884828501620000cb565b91505092915050565b61115e806200011f5f395ff3fe60806040526004361061009b575f3560e01c8063b8c876b111610063578063b8c876b11461015f578063c2507ac11461019b578063ef46b2ab146101d7578063f4325d6714610213578063fc0c546a1461023d578063ffbff8a9146102675761009b565b8063100af2031461009f57806315770f92146100c957806351c6590a146100f35780636fb84b741461010f5780639c8f9f2314610137575b5f80fd5b3480156100aa575f80fd5b506100b3610271565b6040516100c09190610b41565b60405180910390f35b3480156100d4575f80fd5b506100dd610277565b6040516100ea9190610b41565b60405180910390f35b61010d60048036038101906101089190610b88565b61027d565b005b34801561011a575f80fd5b5061013560048036038101906101309190610b88565b61054a565b005b348015610142575f80fd5b5061015d60048036038101906101589190610b88565b61070f565b005b34801561016a575f80fd5b5061018560048036038101906101809190610c0d565b61090c565b6040516101929190610b41565b60405180910390f35b3480156101a6575f80fd5b506101c160048036038101906101bc9190610b88565b610921565b6040516101ce9190610b41565b60405180910390f35b3480156101e2575f80fd5b506101fd60048036038101906101f89190610b88565b61094f565b60405161020a9190610b41565b60405180910390f35b34801561021e575f80fd5b5061022761097d565b6040516102349190610b41565b60405180910390f35b348015610248575f80fd5b50610251610983565b60405161025e9190610c93565b60405180910390f35b61026f6109a6565b005b60015481565b60045481565b5f60015414801561028f57505f600254145b1561038d575f8054906101000a900473ffffffffffffffffffffffffffffffffffffffff1673ffffffffffffffffffffffffffffffffffffffff166323b872dd3330846040518463ffffffff1660e01b81526004016102f093929190610cbb565b6020604051808303815f875af115801561030c573d5f803e3d5ffd5b505050506040513d601f19601f820116820180604052508101906103309190610d25565b503460035f3373ffffffffffffffffffffffffffffffffffffffff1673ffffffffffffffffffffffffffffffffffffffff1681526020019081526020015f2081905550346004819055503460018190555080600281905550610547565b5f6001546002543461039f9190610d7d565b6103a99190610deb565b9050808210156103ee576040517f08c379a00000000000000000000000000000000000000000000000000000000081526004016103e590610e75565b60405180910390fd5b5f8054906101000a900473ffffffffffffffffffffffffffffffffffffffff1673ffffffffffffffffffffffffffffffffffffffff166323b872dd3330846040518463ffffffff1660e01b815260040161044a93929190610cbb565b6020604051808303815f875af1158015610466573d5f803e3d5ffd5b505050506040513d601f19601f8201168201806040525081019061048a9190610d25565b505f6001546004543461049d9190610d7d565b6104a79190610deb565b90508060035f3373ffffffffffffffffffffffffffffffffffffffff1673ffffffffffffffffffffffffffffffffffffffff1681526020019081526020015f205f8282546104f59190610e93565b925050819055508060045f82825461050d9190610e93565b925050819055503460015f8282546105259190610e93565b925050819055508160025f82825461053d9190610e93565b9250508190555050505b50565b5f811161058c576040517f08c379a000000000000000000000000000000000000000000000000000000000815260040161058390610f10565b60405180910390fd5b5f8054906101000a900473ffffffffffffffffffffffffffffffffffffffff1673ffffffffffffffffffffffffffffffffffffffff166323b872dd3330846040518463ffffffff1660e01b81526004016105e893929190610cbb565b6020604051808303815f875af1158015610604573d5f803e3d5ffd5b505050506040513d601f19601f820116820180604052508101906106289190610d25565b505f816002546106389190610e93565b600154836106469190610d7d565b6106509190610deb565b90508160025f8282546106639190610e93565b925050819055508060015410156106af576040517f08c379a00000000000000000000000000000000000000000000000000000000081526004016106a690610f78565b60405180910390fd5b8060015f8282546106c09190610f96565b925050819055503373ffffffffffffffffffffffffffffffffffffffff166108fc8290811502906040515f60405180830381858888f1935050505015801561070a573d5f803e3d5ffd5b505050565b5f8111610751576040517f08c379a000000000000000000000000000000000000000000000000000000000815260040161074890611013565b60405180910390fd5b5f600454600154836107639190610d7d565b61076d9190610deb565b90505f600454600254846107819190610d7d565b61078b9190610deb565b90508260035f3373ffffffffffffffffffffffffffffffffffffffff1673ffffffffffffffffffffffffffffffffffffffff1681526020019081526020015f205f8282546107d99190610f96565b925050819055508260045f8282546107f19190610f96565b925050819055508160015f8282546108099190610f96565b925050819055508060025f8282546108219190610f96565b925050819055503373ffffffffffffffffffffffffffffffffffffffff166108fc8390811502906040515f60405180830381858888f1935050505015801561086b573d5f803e3d5ffd5b505f8054906101000a900473ffffffffffffffffffffffffffffffffffffffff1673ffffffffffffffffffffffffffffffffffffffff1663a9059cbb33836040518363ffffffff1660e01b81526004016108c6929190611031565b6020604051808303815f875af11580156108e2573d5f803e3d5ffd5b505050506040513d601f19601f820116820180604052508101906109069190610d25565b50505050565b6003602052805f5260405f205f915090505481565b5f816001546109309190610e93565b6002548361093e9190610d7d565b6109489190610deb565b9050919050565b5f8160025461095e9190610e93565b6001548361096c9190610d7d565b6109769190610deb565b9050919050565b60025481565b5f8054906101000a900473ffffffffffffffffffffffffffffffffffffffff1681565b5f34116109e8576040517f08c379a00000000000000000000000000000000000000000000000000000000081526004016109df906110a2565b60405180910390fd5b5f3490505f816001546109fb9190610e93565b60025483610a099190610d7d565b610a139190610deb565b90508160015f828254610a269190610e93565b92505081905550806002541015610a72576040517f08c379a0000000000000000000000000000000000000000000000000000000008152600401610a699061110a565b60405180910390fd5b8060025f828254610a839190610f96565b925050819055505f8054906101000a900473ffffffffffffffffffffffffffffffffffffffff1673ffffffffffffffffffffffffffffffffffffffff1663a9059cbb33836040518363ffffffff1660e01b8152600401610ae4929190611031565b6020604051808303815f875af1158015610b00573d5f803e3d5ffd5b505050506040513d601f19601f82011682018060405250810190610b249190610d25565b505050565b5f819050919050565b610b3b81610b29565b82525050565b5f602082019050610b545f830184610b32565b92915050565b5f80fd5b610b6781610b29565b8114610b71575f80fd5b50565b5f81359050610b8281610b5e565b92915050565b5f60208284031215610b9d57610b9c610b5a565b5b5f610baa84828501610b74565b91505092915050565b5f73ffffffffffffffffffffffffffffffffffffffff82169050919050565b5f610bdc82610bb3565b9050919050565b610bec81610bd2565b8114610bf6575f80fd5b50565b5f81359050610c0781610be3565b92915050565b5f60208284031215610c2257610c21610b5a565b5b5f610c2f84828501610bf9565b91505092915050565b5f819050919050565b5f610c5b610c56610c5184610bb3565b610c38565b610bb3565b9050919050565b5f610c6c82610c41565b9050919050565b5f610c7d82610c62565b9050919050565b610c8d81610c73565b82525050565b5f602082019050610ca65f830184610c84565b92915050565b610cb581610bd2565b82525050565b5f606082019050610cce5f830186610cac565b610cdb6020830185610cac565b610ce86040830184610b32565b949350505050565b5f8115159050919050565b610d0481610cf0565b8114610d0e575f80fd5b50565b5f81519050610d1f81610cfb565b92915050565b5f60208284031215610d3a57610d39610b5a565b5b5f610d4784828501610d11565b91505092915050565b7f4e487b71000000000000000000000000000000000000000000000000000000005f52601160045260245ffd5b5f610d8782610b29565b9150610d9283610b29565b9250828202610da081610b29565b91508282048414831517610db757610db6610d50565b5b5092915050565b7f4e487b71000000000000000000000000000000000000000000000000000000005f52601260045260245ffd5b5f610df582610b29565b9150610e0083610b29565b925082610e1057610e0f610dbe565b5b828204905092915050565b5f82825260208201905092915050565b7f77726f6e6720726174696f0000000000000000000000000000000000000000005f82015250565b5f610e5f600b83610e1b565b9150610e6a82610e2b565b602082019050919050565b5f6020820190508181035f830152610e8c81610e53565b9050919050565b5f610e9d82610b29565b9150610ea883610b29565b9250828201905080821115610ec057610ebf610d50565b5b92915050565b7f6e6f20746f6b656e0000000000000000000000000000000000000000000000005f82015250565b5f610efa600883610e1b565b9150610f0582610ec6565b602082019050919050565b5f6020820190508181035f830152610f2781610eee565b9050919050565b7f6e6f7420656e6f7567682045544820696e2072657365727665000000000000005f82015250565b5f610f62601983610e1b565b9150610f6d82610f2e565b602082019050919050565b5f6020820190508181035f830152610f8f81610f56565b9050919050565b5f610fa082610b29565b9150610fab83610b29565b9250828203905081811115610fc357610fc2610d50565b5b92915050565b7f6e6f206c697175696469747900000000000000000000000000000000000000005f82015250565b5f610ffd600c83610e1b565b915061100882610fc9565b602082019050919050565b5f6020820190508181035f83015261102a81610ff1565b9050919050565b5f6040820190506110445f830185610cac565b6110516020830184610b32565b9392505050565b7f6e6f2065746800000000000000000000000000000000000000000000000000005f82015250565b5f61108c600683610e1b565b915061109782611058565b602082019050919050565b5f6020820190508181035f8301526110b981611080565b9050919050565b7f6e6f7420656e6f75676820746f6b656e7320696e2072657365727665000000005f82015250565b5f6110f4601c83610e1b565b91506110ff826110c0565b602082019050919050565b5f6020820190508181035f830152611121816110e8565b905091905056fea2646970667358221220cb0eae2623e6b5071b788d63801753c309c66705801bfd20b2125a9de455829264736f6c63430008140033","linkReferences":{}},"methodIdentifiers":{"addLiquidity(uint256)":"51c6590a","getETHAmount(uint256)":"ef46b2ab","getTokenAmount(uint256)":"c2507ac1","liquidity(address)":"b8c876b1","removeLiquidity(uint256)":"9c8f9f23","reserveETH()":"100af203","reserveToken()":"f4325d67","swapETHForToken()":"ffbff8a9","swapTokenForETH(uint256)":"6fb84b74","token()":"fc0c546a","totalLiquidity()":"15770f92"},"id":29}